{
  "address": "0x3597342717C9545D555233b195525542B7f591c2",
  "abi": [
    {
      "inputs": [
        {
          "internalType": "contract IEntryPoint",
          "name": "_entryPoint",
          "type": "address"
        }
      ],
      "stateMutability": "nonpayable",
      "type": "constructor"
    },
    {
      "inputs": [
        {
          "internalType": "address",
          "name": "owner",
          "type": "address"
        }
      ],
      "name": "OwnableInvalidOwner",
      "type": "error"
    },
    {
      "inputs": [
        {
          "internalType": "address",
          "name": "account",
          "type": "address"
        }
      ],
      "name": "OwnableUnauthorizedAccount",
      "type": "error"
    },
    {
      "inputs": [],
      "name": "ReentrancyGuardReentrantCall",
      "type": "error"
    },
    {
      "anonymous": false,
      "inputs": [
        {
          "indexed": true,
          "internalType": "address",
          "name": "owner",
          "type": "address"
        },
        {
          "indexed": true,
          "internalType": "address",
          "name": "account",
          "type": "address"
        },
        {
          "indexed": true,
          "internalType": "bytes32",
          "name": "salt",
          "type": "bytes32"
        }
      ],
      "name": "AccountCreated",
      "type": "event"
    },
    {
      "anonymous": false,
      "inputs": [
        {
          "indexed": true,
          "internalType": "address",
          "name": "oldImplementation",
          "type": "address"
        },
        {
          "indexed": true,
          "internalType": "address",
          "name": "newImplementation",
          "type": "address"
        }
      ],
      "name": "AccountImplementationUpdated",
      "type": "event"
    },
    {
      "anonymous": false,
      "inputs": [
        {
          "indexed": true,
          "internalType": "address",
          "name": "previousOwner",
          "type": "address"
        },
        {
          "indexed": true,
          "internalType": "address",
          "name": "newOwner",
          "type": "address"
        }
      ],
      "name": "OwnershipTransferred",
      "type": "event"
    },
    {
      "inputs": [],
      "name": "accountImplementation",
      "outputs": [
        {
          "internalType": "address",
          "name": "",
          "type": "address"
        }
      ],
      "stateMutability": "view",
      "type": "function"
    },
    {
      "inputs": [
        {
          "internalType": "address",
          "name": "",
          "type": "address"
        }
      ],
      "name": "accounts",
      "outputs": [
        {
          "internalType": "address",
          "name": "",
          "type": "address"
        }
      ],
      "stateMutability": "view",
      "type": "function"
    },
    {
      "inputs": [
        {
          "internalType": "address[]",
          "name": "owners",
          "type": "address[]"
        },
        {
          "internalType": "bytes32[]",
          "name": "salts",
          "type": "bytes32[]"
        }
      ],
      "name": "batchCreateAccounts",
      "outputs": [
        {
          "internalType": "address[]",
          "name": "accountAddresses",
          "type": "address[]"
        }
      ],
      "stateMutability": "nonpayable",
      "type": "function"
    },
    {
      "inputs": [
        {
          "internalType": "address",
          "name": "owner",
          "type": "address"
        },
        {
          "internalType": "bytes32",
          "name": "salt",
          "type": "bytes32"
        }
      ],
      "name": "createAccount",
      "outputs": [
        {
          "internalType": "address",
          "name": "account",
          "type": "address"
        }
      ],
      "stateMutability": "nonpayable",
      "type": "function"
    },
    {
      "inputs": [],
      "name": "entryPoint",
      "outputs": [
        {
          "internalType": "contract IEntryPoint",
          "name": "",
          "type": "address"
        }
      ],
      "stateMutability": "view",
      "type": "function"
    },
    {
      "inputs": [
        {
          "internalType": "address",
          "name": "owner",
          "type": "address"
        }
      ],
      "name": "getAccount",
      "outputs": [
        {
          "internalType": "address",
          "name": "account",
          "type": "address"
        }
      ],
      "stateMutability": "view",
      "type": "function"
    },
    {
      "inputs": [
        {
          "internalType": "address",
          "name": "owner",
          "type": "address"
        },
        {
          "internalType": "bytes32",
          "name": "salt",
          "type": "bytes32"
        }
      ],
      "name": "getAddress",
      "outputs": [
        {
          "internalType": "address",
          "name": "account",
          "type": "address"
        }
      ],
      "stateMutability": "view",
      "type": "function"
    },
    {
      "inputs": [
        {
          "internalType": "address",
          "name": "account",
          "type": "address"
        }
      ],
      "name": "isAccount",
      "outputs": [
        {
          "internalType": "bool",
          "name": "",
          "type": "bool"
        }
      ],
      "stateMutability": "view",
      "type": "function"
    },
    {
      "inputs": [
        {
          "internalType": "address",
          "name": "",
          "type": "address"
        }
      ],
      "name": "isSmartAccount",
      "outputs": [
        {
          "internalType": "bool",
          "name": "",
          "type": "bool"
        }
      ],
      "stateMutability": "view",
      "type": "function"
    },
    {
      "inputs": [],
      "name": "owner",
      "outputs": [
        {
          "internalType": "address",
          "name": "",
          "type": "address"
        }
      ],
      "stateMutability": "view",
      "type": "function"
    },
    {
      "inputs": [],
      "name": "renounceOwnership",
      "outputs": [],
      "stateMutability": "nonpayable",
      "type": "function"
    },
    {
      "inputs": [
        {
          "internalType": "address",
          "name": "newOwner",
          "type": "address"
        }
      ],
      "name": "transferOwnership",
      "outputs": [],
      "stateMutability": "nonpayable",
      "type": "function"
    },
    {
      "inputs": [
        {
          "internalType": "address",
          "name": "newImplementation",
          "type": "address"
        }
      ],
      "name": "updateImplementation",
      "outputs": [],
      "stateMutability": "nonpayable",
      "type": "function"
    }
  ],
  "transactionHash": "0xc4127f2b8a94f7975e8d46ddba0d233144fc674f1bbb97b827b4539b436daa84",
  "args": [
    "0x5FF137D4b0FDCD49DcA30c7CF57E578a026d2789"
  ],
  "numDeployments": 1,
  "solcInputHash": "97424e69dcb722f3d00e403b2bbcff0e",
  "bytecode": "0x60c03461017757601f620059b738819003918201601f19168301926001600160401b03929091838511838610176100f957816020928492604097885283398101031261017757516001600160a01b0391908281169081810361017757331561015f5761006a3361017c565b60018055811561010f5760a05283519161470390818401908111848210176100f9576020928492620012b4843981520301906000f080156100ee57166080526100b23361017c565b516110f09081620001c482396080518181816106d10152818161073e01528181610aad0152610c15015260a05181818161054d01526107ae0152f35b82513d6000823e3d90fd5b634e487b7160e01b600052604160045260246000fd5b845162461bcd60e51b815260206004820152602360248201527f4163636f756e74466163746f72793a20496e76616c696420656e74727920706f6044820152621a5b9d60ea1b6064820152608490fd5b8451631e4fbdf760e01b815260006004820152602490fd5b600080fd5b600080546001600160a01b039283166001600160a01b03198216811783559216907f8be0079c531659141344cd1fd0a4f28419497f9722a3daafe3b4186f6b6457e09080a356fe604060808152600490813610156200001657600080fd5b600091823560e01c908163025b22bc14620006f557816311464fbe14620006af57816325ca4c9c146200066f5781635e07a6e6146200066f5781635e5c06e21462000642578163715018a614620005d85781637ac4ed6414620005995781638da5cb5b1462000571578163b0d691fe146200052b578163d8bedd401462000238578163f14ddffc14620001b8578163f2fde38b1462000100575063fbcbc0f114620000c057600080fd5b34620000fc576020366003190112620000fc57602091816001600160a01b039182620000eb620008b8565b168152600285522054169051908152f35b5080fd5b905034620001b4576020366003190112620001b4576200011f620008b8565b906200012a62000d5e565b6001600160a01b038092169283156200018557505082548273ffffffffffffffffffffffffffffffffffffffff198216178455167f8be0079c531659141344cd1fd0a4f28419497f9722a3daafe3b4186f6b6457e08380a380f35b908460249251917f1e4fbdf7000000000000000000000000000000000000000000000000000000008352820152fd5b8280fd5b828434620002355781600319360112620002355750620001d7620008b8565b916002600154146200020e57506001600160a01b036200020260209360026001556024359062000b78565b91600180555191168152f35b90517f3ee5aeb5000000000000000000000000000000000000000000000000000000008152fd5b80fd5b83915034620000fc5782600319360112620000fc5767ffffffffffffffff918135838111620000fc57620002709036908401620008d4565b9190936024908135908111620001b4576200028f9036908601620008d4565b9590868503620004e9578415620004a75760328086116200043f57620002ba86999897959662000b38565b94620002c989519687620009ad565b898652620002d78a62000b38565b60209a878c019991601f1901368b37885b8181106200033b578c8c8c8c8c83519485948186019282875251809352850193925b8281106200031a57505050500390f35b83516001600160a01b0316855286955093810193928101926001016200030a565b6200034e81839d9e9b9a9c9d8962000b51565b356001600160a01b039081811680910362000428578b8f9160448c918e62000378888b8f62000b51565b35955195869485937ff14ddffc0000000000000000000000000000000000000000000000000000000085528d850152830152305af190811562000434578b91620003f3575b508c51831015620003e25716600582901b8c018b0152989b9a999798600101620002e8565b898b8888634e487b7160e01b835252fd5b90508b81813d83116200042c575b6200040d8183620009ad565b81010312620004285751818116810362000428578f620003bd565b8a80fd5b503d62000401565b508e513d8c823e3d90fd5b60848760218660208d519362461bcd60e51b85528401528201527f4163636f756e74466163746f72793a20546f6f206d616e79206163636f756e7460448201527f73000000000000000000000000000000000000000000000000000000000000006064820152fd5b606486601c8560208c519362461bcd60e51b85528401528201527f4163636f756e74466163746f72793a20456d70747920617272617973000000006044820152fd5b606486601f8560208c519362461bcd60e51b85528401528201527f4163636f756e74466163746f72793a204c656e677468206d69736d61746368006044820152fd5b505034620000fc5781600319360112620000fc57602090516001600160a01b037f0000000000000000000000000000000000000000000000000000000000000000168152f35b505034620000fc5781600319360112620000fc576001600160a01b0360209254169051908152f35b505034620000fc5780600319360112620000fc576020906001600160a01b03620005d0620005c6620008b8565b6024359062000a33565b915191168152f35b83346200023557806003193601126200023557620005f562000d5e565b806001600160a01b03815473ffffffffffffffffffffffffffffffffffffffff1981168355167f8be0079c531659141344cd1fd0a4f28419497f9722a3daafe3b4186f6b6457e08280a380f35b505034620000fc576020366003190112620000fc57602091816001600160a01b039182620000eb620008b8565b505034620000fc576020366003190112620000fc5760ff816020936001600160a01b036200069c620008b8565b1681526003855220541690519015158152f35b505034620000fc5781600319360112620000fc57602090516001600160a01b037f0000000000000000000000000000000000000000000000000000000000000000168152f35b91905034620001b45760209081600319360112620008b45762000717620008b8565b906200072262000d5e565b6001600160a01b03809216936200073b85151562000908565b827f000000000000000000000000000000000000000000000000000000000000000016938486146200084e5780835180937fb0d691fe00000000000000000000000000000000000000000000000000000000825281895afa9283156200084557508692620007fe575b505081620007d7927f00000000000000000000000000000000000000000000000000000000000000001691161462000908565b7fdb1cf6e68919ccb66819bba70c05718df12f73b3c9ea0dfa15b1abf2653fd9b28380a380f35b90809250813d83116200083d575b620008188183620009ad565b81010312620008395751908082168203620008395790620007d738620007a4565b8480fd5b503d6200080c565b513d88823e3d90fd5b608492519162461bcd60e51b8352820152602360248201527f4163636f756e74466163746f72793a2053616d6520696d706c656d656e74617460448201527f696f6e00000000000000000000000000000000000000000000000000000000006064820152fd5b8380fd5b600435906001600160a01b0382168203620008cf57565b600080fd5b9181601f84011215620008cf5782359167ffffffffffffffff8311620008cf576020808501948460051b010111620008cf57565b156200091057565b608460405162461bcd60e51b815260206004820152602660248201527f4163636f756e74466163746f72793a20496e76616c696420696d706c656d656e60448201527f746174696f6e00000000000000000000000000000000000000000000000000006064820152fd5b6060810190811067ffffffffffffffff8211176200099757604052565b634e487b7160e01b600052604160045260246000fd5b90601f8019910116810190811067ffffffffffffffff8211176200099757604052565b60005b838110620009e45750506000910152565b8181015183820152602001620009d3565b90916001600160a01b036060931682526040602083015262000a278151809281604086015260208686019101620009d0565b601f01601f1916010190565b90600b60559162000b0b604091825162000b1e60209263189acdbd60e31b848401526001600160a01b039889811660248501526024845262000a75846200097a565b62000b18856102de9589519062000a8f83890183620009ad565b8782528282019762000ddd89398a5162000ae28162000ad3868201947f000000000000000000000000000000000000000000000000000000000000000086620009f5565b03601f198101835282620009ad565b8b519a8b9362000afb8686019b8c9251928391620009d0565b84019151809386840190620009d0565b01038089520187620009ad565b62000da3565b925190208351938401528201523081520160ff8153201690565b67ffffffffffffffff8111620009975760051b60200190565b919081101562000b625760051b0190565b634e487b7160e01b600052603260045260246000fd5b91906001600160a01b03808416801562000d1a57600094818652602092600284526040918183892054168062000d10575062000bb5868262000a33565b803b62000ccd575062000be68684519263189acdbd60e31b888501528660248501526024845262000b18846200097a565b908351906102de8083019083821067ffffffffffffffff83111762000cb9579162000c3b91849362000ddd85397f000000000000000000000000000000000000000000000000000000000000000090620009f5565b039089f5801562000caf579160039697917ff66707ae2820569ece31cb5ac7cfcdd4d076c3f31ed9e28bf94394bedc0f329d9316968795858452600281528284208773ffffffffffffffffffffffffffffffffffffffff19825416179055868452528120600160ff1982541617905580a490565b82513d89823e3d90fd5b60248c634e487b7160e01b81526041600452fd5b9388525060028452818720805473ffffffffffffffffffffffffffffffffffffffff19169184169182179055865260039092529320805460ff1916600117905550565b9750505050505050565b606460405162461bcd60e51b815260206004820152601d60248201527f4163636f756e74466163746f72793a20496e76616c6964206f776e65720000006044820152fd5b6001600160a01b0360005416330362000d7357565b60246040517f118cdaa7000000000000000000000000000000000000000000000000000000008152336004820152fd5b906040519060208201926bffffffffffffffffffffffff199060601b16835260348201526034815262000dd6816200097a565b5190209056fe60806040526102de8038038061001481610194565b92833981019060408183031261018f5780516001600160a01b03811680820361018f5760208381015190936001600160401b03821161018f570184601f8201121561018f5780519061006d610068836101cf565b610194565b9582875285838301011161018f57849060005b83811061017b57505060009186010152813b15610163577f360894a13ba1a3210667c828492db98dca3e2076cc3735a920a3ca505d382bbc80546001600160a01b03191682179055604051907fbc7cd75a20ee27fd9adebab32041f755214dbc6bffa90cc0225b39da2e5c2d3b600080a28351156101455750600080848461012c96519101845af4903d1561013c573d61011c610068826101cf565b908152600081943d92013e6101ea565b505b6040516090908161024e8239f35b606092506101ea565b9250505034610154575061012e565b63b398979f60e01b8152600490fd5b60249060405190634c9c8ce360e01b82526004820152fd5b818101830151888201840152869201610080565b600080fd5b6040519190601f01601f191682016001600160401b038111838210176101b957604052565b634e487b7160e01b600052604160045260246000fd5b6001600160401b0381116101b957601f01601f191660200190565b9061021157508051156101ff57602081519101fd5b60405163d6bda27560e01b8152600490fd5b81511580610244575b610222575090565b604051639996b31560e01b81526001600160a01b039091166004820152602490fd5b50803b1561021a56fe608060405273ffffffffffffffffffffffffffffffffffffffff7f360894a13ba1a3210667c828492db98dca3e2076cc3735a920a3ca505d382bbc54166000808092368280378136915af43d82803e156056573d90f35b3d90fdfea26469706673582212203c08fe2e718c6c686459b087145a7eb65c586e4699c4f8e6ba404b84d7ccaf2264736f6c63430008170033a264697066735822122080f6b8613afadee34588e254578380f7fe3f345863573cc79fd3cfcfead4577e64736f6c6343000817003360c03462000134576001600160401b0390601f6200470338819003918201601f19168301918483118484101762000139578084926020946040528339810103126200013457516001600160a01b0381168103620001345730608052600160005560a0527ff0c57e16840df040f15088dc2f81fe391c3923bec73e23a9662efc9c229c6a009081549060ff8260401c1662000122578080831603620000dc575b6040516145b39081620001508239608051818181610c3f0152610e4b015260a05181818161040501528181610aef015281816112d101526119170152f35b6001600160401b031990911681179091556040519081527fc7f505b2f371ae2175ee4913f4499e1f2633a7b5936321eed1cdaeb6115181d290602090a13880806200009e565b60405163f92ee8a960e01b8152600490fd5b600080fd5b634e487b7160e01b600052604160045260246000fdfe608060405260043610156200001a575b36156200001857005b005b60003560e01c806301ffc9a714620001db5780630633b14a14620001d55780630b82619014620001cf578063150b7a0214620001c957806319822f7c14620001c3578063198f0ea814620001bd5780631c8123d614620001b75780631d173de814620001b157806336c82fbc14620001ab57806347e1da2a14620001a55780634f1ef286146200019f57806352d1902d146200019957806371404156146200019357806384f4fc6a146200018d5780638da5cb5b1462000187578063a526d83b1462000181578063a7c504a8146200017b578063ad3cb1cc1462000175578063b0d691fe146200016f578063b61d27f61462000169578063bc197c811462000163578063c0626cbd146200015d578063c4d66de81462000157578063d087d28814620001515763f23a6e61036200000f5762001999565b620018c1565b62001711565b6200143b565b62001383565b620012f5565b620012af565b62001214565b620011e1565b620010a4565b6200107b565b62000fd5565b62000ead565b62000e2e565b62000be2565b620009ae565b6200098e565b62000885565b62000865565b620004f4565b620003c2565b6200035f565b62000305565b620002b2565b346200029b5760203660031901126200029b576004357fffffffff0000000000000000000000000000000000000000000000000000000081168091036200029b5780630a85bd0160e11b6020921490811562000270575b811562000245575b506040519015158152f35b7f01ffc9a700000000000000000000000000000000000000000000000000000000915014386200023a565b7f4e2312e0000000000000000000000000000000000000000000000000000000008114915062000232565b600080fd5b6001600160a01b038116036200029b57565b346200029b5760203660031901126200029b576001600160a01b03600435620002db81620002a0565b166000526004602052602060ff604060002054166040519015158152f35b60009103126200029b57565b346200029b5760003660031901126200029b5760206001600160a01b0360025416604051908152f35b9181601f840112156200029b5782359167ffffffffffffffff83116200029b57602083818601950101116200029b57565b346200029b5760803660031901126200029b576200037f600435620002a0565b6200038c602435620002a0565b60643567ffffffffffffffff81116200029b57620003af9036906004016200032e565b50506020604051630a85bd0160e11b8152f35b346200029b576003196060368201126200029b576004359067ffffffffffffffff82116200029b576101209082360301126200029b576044356001600160a01b037f00000000000000000000000000000000000000000000000000000000000000001633036200047c57620004426200045b926024359060040162002389565b90806200045f575b506040519081529081906020820190565b0390f35b600080808093338219f15062000474620024d1565b50386200044a565b606460405162461bcd60e51b815260206004820152601c60248201527f6163636f756e743a206e6f742066726f6d20456e747279506f696e74000000006044820152fd5b9181601f840112156200029b5782359167ffffffffffffffff83116200029b576020808501948460051b0101116200029b57565b346200029b5760603660031901126200029b576004356200051581620002a0565b67ffffffffffffffff6024358181116200029b5762000539903690600401620004c0565b9290916044359081116200029b5762000557903690600401620004c0565b9390926001600160a01b0393848416956200057487151562001a15565b60065491620005868386101562001a61565b6200059382861462001ad2565b6040517f454d455247454e43595f5245434f564552590000000000000000000000000000602082019081526bffffffffffffffffffffffff19606089811b8216603285015230901b1660468301526200063191620005ff81605a81015b03601f19810183528262000b66565b5190207f19457468657265756d205369676e6564204d6573736167653a0a333200000000600052601c52603c60002090565b60009260005b8781106200078c5750505050906200065191101562001c98565b62000692620006686001546001600160a01b031690565b936001600160a01b031673ffffffffffffffffffffffffffffffffffffffff196001541617600155565b620006b5620006a96002546001600160a01b031690565b6001600160a01b031690565b91823b156200029b576040517fdb278724000000000000000000000000000000000000000000000000000000008152306004820152926000908490602490829084905af1918215620007865786937f2781ed01465aca69d90f54a8b01b4c8a5e95ad440ecbbe918147ea9e92289f279362000768575b506200073d6040519283928362001d62565b0390a2167f8be0079c531659141344cd1fd0a4f28419497f9722a3daafe3b4186f6b6457e0600080a3005b80620007786200077f9262000b2e565b80620002f9565b386200072b565b62001d0a565b620007a36200079d828a8a62001b5a565b62001b71565b620007d6620007d0620007c9836001600160a01b03166000526004602052604060002090565b5460ff1690565b62001b80565b8a168860005b898385831062000839575050505062000812620006a96200080b6200080385878a62001c4e565b369162000ba6565b8662002506565b1462000822575b60010162000637565b936200083060019162001c82565b94905062000819565b62000854620006a96200079d856001976200085c9662001b5a565b141562001bcc565b018990620007dc565b346200029b5760003660031901126200029b576020600654604051908152f35b346200029b5760a03660031901126200029b57600435620008a681620002a0565b67ffffffffffffffff906064358281116200029b57620008cb903690600401620004c0565b90926084359081116200029b57620008e8903690600401620004c0565b9093620009026001600160a01b0360015416331462001d75565b62000919620006a96002546001600160a01b031690565b91823b156200029b576000946200096c8692604051988997889687957f2d02635c0000000000000000000000000000000000000000000000000000000087526044359060243590309060048a0162001de7565b03925af1801562000786576200097e57005b8062000778620000189262000b2e565b346200029b5760003660031901126200029b576020600554604051908152f35b346200029b5760603660031901126200029b5767ffffffffffffffff6004358181116200029b57620009e5903690600401620004c0565b6024358381116200029b5762000a00903690600401620004c0565b90936044359081116200029b5762000a1d903690600401620004c0565b916001600160a01b039562000a456001978060015416331490811562000aeb575b5062001e92565b62000a4f62002520565b8385148062000ad8575b62000a649062001ad2565b60005b85811062000a76576001600055005b8060008062000a888b948a8c62001b5a565b3562000a9481620002a0565b8615821462000ac35781905b62000ab162000803868c8c62001c4e565b91602083519301915af1500162000a67565b62000ad084888862001b5a565b359062000aa0565b5081158062000a59575081841462000a59565b90507f00000000000000000000000000000000000000000000000000000000000000001633143862000a3e565b634e487b7160e01b600052604160045260246000fd5b67ffffffffffffffff811162000b4357604052565b62000b18565b6040810190811067ffffffffffffffff82111762000b4357604052565b90601f8019910116810190811067ffffffffffffffff82111762000b4357604052565b67ffffffffffffffff811162000b4357601f01601f191660200190565b92919262000bb48262000b89565b9162000bc4604051938462000b66565b8294818452818301116200029b578281602093846000960137010152565b6040806003193601126200029b57600480359162000c0083620002a0565b60243567ffffffffffffffff81116200029b57366023820112156200029b5762000c34903690602481860135910162000ba6565b6001600160a01b03807f00000000000000000000000000000000000000000000000000000000000000001680301490811562000dff575b5062000df0578060015416330362000d885790602084928451938480927f52d1902d00000000000000000000000000000000000000000000000000000000825289165afa6000928162000d50575b5062000ce657505051634c9c8ce360e01b81526001600160a01b0390921690820190815281906020010390fd5b8484847f360894a13ba1a3210667c828492db98dca3e2076cc3735a920a3ca505d382bbc850362000d1d57620000188484620026c1565b517faa1d49a400000000000000000000000000000000000000000000000000000000815290810184815281906020010390fd5b62000d7891935060203d60201162000d80575b62000d6f818362000b66565b8101906200256e565b913862000cb9565b503d62000d63565b608484602085519162461bcd60e51b83528201526024808201527f536d6172744163636f756e743a204f6e6c79206f776e65722063616e2075706760448201527f72616465000000000000000000000000000000000000000000000000000000006064820152fd5b50505163703e46dd60e11b8152fd5b9050817f360894a13ba1a3210667c828492db98dca3e2076cc3735a920a3ca505d382bbc541614153862000c6b565b346200029b5760003660031901126200029b576001600160a01b037f000000000000000000000000000000000000000000000000000000000000000016300362000e9c5760206040517f360894a13ba1a3210667c828492db98dca3e2076cc3735a920a3ca505d382bbc8152f35b600460405163703e46dd60e11b8152fd5b346200029b5760203660031901126200029b5760043562000ece81620002a0565b6001600160a01b0362000ee78160015416331462001f04565b8116600091818352600460205260ff6040842054161562000f6b5762000f2462000f2e916001600160a01b03166000526004602052604060002090565b805460ff19169055565b62000f4462000f3f60055462001f50565b600555565b7fb8107d0c6b40be480ce3172ee66ba6d64b71f6b1685a851340036e6e2e3e3c528280a280f35b608460405162461bcd60e51b815260206004820152602560248201527f536d6172744163636f756e743a20477561726469616e20646f6573206e6f742060448201527f65786973740000000000000000000000000000000000000000000000000000006064820152fd5b346200029b5760203660031901126200029b5760043562000ff681620002a0565b6200100e6001600160a01b0360015416331462001f5e565b62001025620006a96002546001600160a01b031690565b803b156200029b576040517f1f0917820000000000000000000000000000000000000000000000000000000081526001600160a01b0383166004820152306024820152906000908290818381604481016200096c565b346200029b5760003660031901126200029b5760206001600160a01b0360015416604051908152f35b346200029b5760203660031901126200029b57600435620010c581620002a0565b6001600160a01b0390816001541691620010e183331462001f04565b8116918215159081620011d5575b501562001191576200114c81620011336200112d62001129620007c962001159966001600160a01b03166000526004602052604060002090565b1590565b62001fd0565b6001600160a01b03166000526004602052604060002090565b805460ff19166001179055565b6200116a62000f3f60055462001c82565b7f038596bb31e2e7d3d9f184d4c98b310103f6d7f5830e5eec32bffe6f1728f969600080a2005b606460405162461bcd60e51b815260206004820152601e60248201527f536d6172744163636f756e743a20496e76616c696420677561726469616e00006044820152fd5b905082141538620010ef565b346200029b5760203660031901126200029b576004356000526007602052602060ff604060002054166040519015158152f35b346200029b5760003660031901126200029b576040805190620012378262000b49565b600582526020907f352e302e300000000000000000000000000000000000000000000000000000006020840152604051916020835283519182602085015260005b8381106200129b5784604081866000838284010152601f80199101168101030190f35b858101830151858201830152820162001278565b346200029b5760003660031901126200029b5760206040516001600160a01b037f0000000000000000000000000000000000000000000000000000000000000000168152f35b346200029b5760603660031901126200029b576004356200131681620002a0565b60443567ffffffffffffffff81116200029b576000916200136d62001341849336906004016200032e565b620013636001600160a01b038060015416331490811562000aeb575062001e92565b6200080362002520565b9060208251920190602435905af1506001600055005b346200029b5760a03660031901126200029b57620013a3600435620002a0565b620013b0602435620002a0565b67ffffffffffffffff6044358181116200029b57620013d4903690600401620004c0565b50506064358181116200029b57620013f1903690600401620004c0565b50506084359081116200029b576200140e9036906004016200032e565b50506040517fbc197c81000000000000000000000000000000000000000000000000000000008152602090f35b346200029b5760803660031901126200029b576004356200145c81620002a0565b60243560443567ffffffffffffffff81116200029b57620014829036906004016200032e565b92606435926200149284620002a0565b6200149c62002520565b620014b3620006a96002546001600160a01b031690565b6040517fae1eef8a0000000000000000000000000000000000000000000000000000000081526001600160a01b038616600482015230602482015290936020918281604481895afa8015620007865788966200151c84928694600091620016ef575b506200205c565b8689620015596040519a8b95869485947fba066b8600000000000000000000000000000000000000000000000000000000865260048601620020ef565b03915afa918215620007865762001583620015e393620015ea97600091620016bb575b5062002119565b604051908101906200159f81620005f0428c878a8c896200218b565b51902096620015ca620015c462001129620007c98b6000526007602052604060002090565b620021be565b620008036200114c896000526007602052604060002090565b916200255c565b62001601620006a96002546001600160a01b031690565b803b156200029b576040517f81c544810000000000000000000000000000000000000000000000000000000081526001600160a01b039390931660048401526000908390602490829084905af190811562000786577f1d14a3e696bb4d8779eaae342540fc3207c9a38d1ac7d987f623f3181df06c42926200169692620016a4575b5060405190151581529081906020820190565b0390a2620000186001600055565b8062000778620016b49262000b2e565b3862001683565b620016e09150833d8511620016e7575b620016d7818362000b66565b81019062002042565b386200157c565b503d620016cb565b6200170a9150853d8711620016e757620016d7818362000b66565b3862001515565b346200029b5760203660031901126200029b576004356200173281620002a0565b7ff0c57e16840df040f15088dc2f81fe391c3923bec73e23a9662efc9c229c6a00549067ffffffffffffffff60ff8360401c1615921680159081620018b8575b6001149081620018ad575b159081620018a3575b5062001879577ff0c57e16840df040f15088dc2f81fe391c3923bec73e23a9662efc9c229c6a00805467ffffffffffffffff19166001179055620017d09082620018375762002230565b620017d757005b7ff0c57e16840df040f15088dc2f81fe391c3923bec73e23a9662efc9c229c6a00805468ff000000000000000019169055604051600181527fc7f505b2f371ae2175ee4913f4499e1f2633a7b5936321eed1cdaeb6115181d290602090a1005b7ff0c57e16840df040f15088dc2f81fe391c3923bec73e23a9662efc9c229c6a00805468ff000000000000000019166801000000000000000017905562002230565b60046040517ff92ee8a9000000000000000000000000000000000000000000000000000000008152fd5b9050153862001786565b303b1591506200177d565b83915062001772565b346200029b5760008060031936011262001996576040517f35567e1a0000000000000000000000000000000000000000000000000000000081523060048201528160248201526020816044816001600160a01b037f0000000000000000000000000000000000000000000000000000000000000000165afa9081156200078657829162001954575b604051828152602090f35b90506020813d6020116200198d575b81620019726020938362000b66565b8101031262001989576200045b9150513862001949565b5080fd5b3d915062001963565b80fd5b346200029b5760a03660031901126200029b57620019b9600435620002a0565b620019c6602435620002a0565b60843567ffffffffffffffff81116200029b57620019e99036906004016200032e565b505060206040517ff23a6e61000000000000000000000000000000000000000000000000000000008152f35b1562001a1d57565b606460405162461bcd60e51b815260206004820152601f60248201527f536d6172744163636f756e743a20496e76616c6964206e6577206f776e6572006044820152fd5b1562001a6957565b608460405162461bcd60e51b8152602060048201526024808201527f536d6172744163636f756e743a20496e73756666696369656e7420677561726460448201527f69616e73000000000000000000000000000000000000000000000000000000006064820152fd5b1562001ada57565b608460405162461bcd60e51b815260206004820152602360248201527f536d6172744163636f756e743a204172726179206c656e677468206d69736d6160448201527f74636800000000000000000000000000000000000000000000000000000000006064820152fd5b634e487b7160e01b600052603260045260246000fd5b919081101562001b6b5760051b0190565b62001b44565b3562001b7d81620002a0565b90565b1562001b8857565b606460405162461bcd60e51b815260206004820152601c60248201527f536d6172744163636f756e743a204e6f74206120677561726469616e000000006044820152fd5b1562001bd457565b606460405162461bcd60e51b815260206004820152602060248201527f536d6172744163636f756e743a204475706c696361746520677561726469616e6044820152fd5b903590601e19813603018212156200029b570180359067ffffffffffffffff82116200029b576020019181360383136200029b57565b9082101562001b6b5762001c689160051b81019062001c18565b9091565b634e487b7160e01b600052601160045260246000fd5b600019811462001c925760010190565b62001c6c565b1562001ca057565b608460405162461bcd60e51b815260206004820152602b60248201527f536d6172744163636f756e743a20496e73756666696369656e742076616c696460448201527f207369676e6174757265730000000000000000000000000000000000000000006064820152fd5b6040513d6000823e3d90fd5b91908082526020809201929160005b82811062001d34575050505090565b9091929382806001926001600160a01b03883562001d5281620002a0565b1681520195019392910162001d25565b91602062001b7d93818152019162001d16565b1562001d7d57565b608460405162461bcd60e51b815260206004820152603060248201527f536d6172744163636f756e743a204f6e6c79206f776e65722063616e2063726560448201527f6174652073657373696f6e206b657973000000000000000000000000000000006064820152fd5b9362001e259360209693989997926001600160a01b038091168752879916878701526040860152606085015260c0608085015260c084019162001d16565b9060a08183039101528281520192916000805b83821062001e4857505050505090565b909192939485357fffffffff00000000000000000000000000000000000000000000000000000000811680910362001e8e57815283019483019392916001019062001e38565b8280fd5b1562001e9a57565b608460405162461bcd60e51b815260206004820152602560248201527f536d6172744163636f756e743a204e6f74206f776e6572206f7220456e74727960448201527f506f696e740000000000000000000000000000000000000000000000000000006064820152fd5b1562001f0c57565b606460405162461bcd60e51b815260206004820152601860248201527f536d6172744163636f756e743a204f6e6c79206f776e657200000000000000006044820152fd5b801562001c92576000190190565b1562001f6657565b608460405162461bcd60e51b815260206004820152603060248201527f536d6172744163636f756e743a204f6e6c79206f776e65722063616e2072657660448201527f6f6b652073657373696f6e206b657973000000000000000000000000000000006064820152fd5b1562001fd857565b608460405162461bcd60e51b815260206004820152602560248201527f536d6172744163636f756e743a20477561726469616e20616c7265616479206560448201527f78697374730000000000000000000000000000000000000000000000000000006064820152fd5b908160209103126200029b575180151581036200029b5790565b156200206457565b608460405162461bcd60e51b815260206004820152602160248201527f536d6172744163636f756e743a20496e76616c69642073657373696f6e206b6560448201527f79000000000000000000000000000000000000000000000000000000000000006064820152fd5b908060209392818452848401376000828201840152601f01601f1916010190565b60609162001b7d95936001600160a01b0380921683521660208201528160408201520191620020ce565b156200212157565b608460405162461bcd60e51b815260206004820152603760248201527f536d6172744163636f756e743a2053657373696f6e206b65792063616e6e6f7460448201527f20657865637574652074686973206f7065726174696f6e0000000000000000006064820152fd5b9192849360549695926bffffffffffffffffffffffff199060601b16845260148401526034830137019060348201520190565b15620021c657565b608460405162461bcd60e51b815260206004820152602860248201527f536d6172744163636f756e743a204f7065726174696f6e20616c72656164792060448201527f65786563757465640000000000000000000000000000000000000000000000006064820152fd5b6001600160a01b038116908115620023025762002270906001600160a01b031673ffffffffffffffffffffffffffffffffffffffff196001541617600155565b604051611ca080820182811067ffffffffffffffff82111762000b43578291620028de833903906000f080156200078657620022cf906001600160a01b031673ffffffffffffffffffffffffffffffffffffffff196002541617600255565b620022da6002600655565b60007f8be0079c531659141344cd1fd0a4f28419497f9722a3daafe3b4186f6b6457e08180a3565b606460405162461bcd60e51b815260206004820152601b60248201527f536d6172744163636f756e743a20496e76616c6964206f776e657200000000006044820152fd5b9492909362001b7d96946200237a936001600160a01b038092168852166020870152608060408701526080860191620020ce565b926060818503910152620020ce565b90620023be907f19457468657265756d205369676e6564204d6573736167653a0a333200000000600052601c52603c60002090565b90620023e0610100820192620023d962000803858562001c18565b9062002506565b91620023f8620006a96001546001600160a01b031690565b6001600160a01b03841614620024c957620024809260209262002427620006a96002546001600160a01b031690565b91620024446200243b606084018462001c18565b95909362001c18565b604097919751978896879586957f85d6ce9a00000000000000000000000000000000000000000000000000000000875230906004880162002346565b03915afa9081156200078657600091620024a5575b50620024a057600190565b600090565b620024c2915060203d602011620016e757620016d7818362000b66565b3862002495565b505050600090565b3d1562002501573d90620024e58262000b89565b91620024f5604051938462000b66565b82523d6000602084013e565b606090565b62001b7d9162002516916200257e565b90929192620025de565b60026000541462002532576002600055565b60046040517f3ee5aeb5000000000000000000000000000000000000000000000000000000008152fd5b916000928392602083519301915af190565b908160209103126200029b575190565b8151919060418303620025b257620025ab92506020820151906060604084015193015160001a90620027a2565b9192909190565b505060009160029190565b60041115620025c857565b634e487b7160e01b600052602160045260246000fd5b620025e981620025bd565b80620025f3575050565b620025fe81620025bd565b60018103620026315760046040517ff645eedf000000000000000000000000000000000000000000000000000000008152fd5b6200263c81620025bd565b6002810362002677576040517ffce698f700000000000000000000000000000000000000000000000000000000815260048101839052602490fd5b8062002685600392620025bd565b146200268e5750565b6040517fd78bce0c0000000000000000000000000000000000000000000000000000000081526004810191909152602490fd5b90813b1562002781576001600160a01b0382167f360894a13ba1a3210667c828492db98dca3e2076cc3735a920a3ca505d382bbc8173ffffffffffffffffffffffffffffffffffffffff198254161790557fbc7cd75a20ee27fd9adebab32041f755214dbc6bffa90cc0225b39da2e5c2d3b600080a28051156200274d576200274a9162002829565b50565b5050346200275757565b60046040517fb398979f000000000000000000000000000000000000000000000000000000008152fd5b6024826001600160a01b0360405191634c9c8ce360e01b8352166004820152fd5b91907f7fffffffffffffffffffffffffffffff5d576e7357a4501ddfe92f46681b20a084116200281d57926020929160ff608095604051948552168484015260408301526060820152600092839182805260015afa15620007865780516001600160a01b038116156200281457918190565b50809160019190565b50505060009160039190565b60008062001b7d93602081519101845af462002844620024d1565b91906200288657508051156200285c57602081519101fd5b60046040517fd6bda275000000000000000000000000000000000000000000000000000000008152fd5b81511580620028d3575b62002899575090565b6024906001600160a01b03604051917f9996b315000000000000000000000000000000000000000000000000000000008352166004820152fd5b50803b156200289056fe6080806040523461007e5733156100685760008054336001600160a01b03198216811783556040519290916001600160a01b0316907f8be0079c531659141344cd1fd0a4f28419497f9722a3daafe3b4186f6b6457e09080a360018055611c1c90816100848239f35b631e4fbdf760e01b815260006004820152602490fd5b600080fdfe6080604052600436101561001257600080fd5b60003560e01c80631f0917821461136c5780632d02635c14610b7557806336c8b4fe14610b1b5780633cedb98214610a075780633f4ba83a1461080d57806355a51d0f14610990578063598d31a81461093e578063715018a6146108d857806381c54481146108285780638456cb591461080d57806385d6ce9a146107a157806386375c9e146104d75780638da5cb5b146104b057806396ade1f91461040c578063ae1eef8a14610384578063b1af1d621461032a578063ba066b86146102d2578063db2787241461019e5763f2fde38b146100ed57600080fd5b3461019957602036600319011261019957610106611432565b61010e611a08565b6001600160a01b03809116908115610168576000548273ffffffffffffffffffffffffffffffffffffffff19821617600055167f8be0079c531659141344cd1fd0a4f28419497f9722a3daafe3b4186f6b6457e0600080a3005b60246040517f1e4fbdf700000000000000000000000000000000000000000000000000000000815260006004820152fd5b600080fd5b3461019957602080600319360112610199576101b8611432565b906001600160a01b03918281169081600052600383526101db6040600020611640565b9160005b83518110156102725780866101f660019387611944565b51166000526002808752604060002084600052875260ff60406000205416610220575b50016101df565b8761022b8388611944565b511660005286526040600020836000528652604060002060ff198154169055866102558287611944565b51166000526004865261026c846040600020611958565b87610219565b5083816000526003815260406000209081549060008355816102b7575b837fa30fc26784e407dc84a4b7ef6eb791519d2438878768713af74d5205fc23cf27600080a2005b6102ca92600052600020908101906115d3565b81808061028f565b34610199576060366003190112610199576102eb611432565b506102f4611448565b60443567ffffffffffffffff81116101995760209161031a6103209236906004016114fa565b9161181f565b6040519015158152f35b3461019957604036600319011261019957610343611432565b602435906001600160a01b03809116600052600360205260406000208054831015610199576020926103749161148f565b90549060031b1c16604051908152f35b346101995760403660031901126101995761039d611432565b6103a5611448565b906001600160a01b038091166000526002602052604060002091166000526020526020604060002060ff81541690816103fd575b816103ea575b506040519015158152f35b90506005600482015491015411826103df565b600181015442111591506103d9565b3461019957604036600319011261019957610425611432565b61042d611448565b906001600160a01b03809116600052600260205260406000209116600052602052610100604060002060ff815416906001810154906002810154600382015460048301549060058401549260096008860154950154956040519715158852602088015260408701526060860152608085015260a084015260c083015260e0820152f35b346101995760003660031901126101995760206001600160a01b0360005416604051908152f35b34610199576040366003190112610199576104f0611432565b6104f8611448565b906001600160a01b03809116600052600260205260406000209116600052602052604060002060ff8154169060018101546002820154600383015460048401549061054560068601611640565b9260405194858096602060078a01549182815201906007829a016000526020600020906000915b81600784011061072b57926105db926106099997959260209b999795549181811061070e575b8181106106f1575b8181106106d4575b8181106106b7575b81811061069a575b81811061067d575b818110610662575b1061064e575b509b9a99989796959493929b0388611599565b604051998a9915158a52868a015260408901526060880152608087015260e060a087015260e08601906114bd565b9184830360c0860152519182815201919060005b81811061062b575050500390f35b82516001600160e01b03191684528594506020938401939092019160010161061d565b6001600160e01b031916815289018d6105c8565b828d1b6001600160e01b0319168452928c01926001016105c2565b928c6001916001600160e01b03198560401b1681520193016105ba565b928c6001916001600160e01b03198560601b1681520193016105b2565b928c6001916001600160e01b03198560801b1681520193016105aa565b928c6001916001600160e01b03198560a01b1681520193016105a2565b928c6001916001600160e01b03198560c01b16815201930161059a565b928c6001916001600160e01b03198560e01b168152019301610592565b93509091600161010060089286546001600160e01b031990818160e01b16835260c08282821b16602085015260a08383821b166040860152606084846080928282851b16818a01521b1690860152838360401b1690850152828260201b16908401521660e082015201940192019089939261056c565b34610199576080366003190112610199576107ba611432565b6107c2611448565b67ffffffffffffffff90604435828111610199576107e49036906004016114fa565b606494919435938411610199576020946108056103209536906004016114fa565b94909361169a565b3461019957600036600319011261019957610826611a08565b005b34610199576020366003190112610199576001600160a01b03610849611432565b16806000526002602052604060002033600052602052604060002061087160ff825416611528565b60048101805460001981146108c25760010190556009429101556040519060008252600060208301527f217de27fab2ff3ec64dcfd3982cf92139e3f49879c57f1f1997f65218f64072c60403393a3005b634e487b7160e01b600052601160045260246000fd5b34610199576000366003190112610199576108f1611a08565b60006001600160a01b03815473ffffffffffffffffffffffffffffffffffffffff1981168355167f8be0079c531659141344cd1fd0a4f28419497f9722a3daafe3b4186f6b6457e08280a3005b34610199576020366003190112610199576001600160a01b0361095f611432565b16600052600360205261098c6109786040600020611640565b6040519182916020835260208301906114bd565b0390f35b34610199576040366003190112610199576109a9611432565b6109b1611448565b906001600160a01b03809116600052600260205260406000209116600052602052608060406000206008810154906009810154906003600482015491015491604051938452602084015260408301526060820152f35b3461019957604036600319011261019957610a20611432565b6001600160a01b0360243591168060005260026020526040600020336000526020526040600020610a5460ff825416611528565b60038101908154906002610a688684611633565b91015410610ab15783610a7a91611633565b9055604051916000835260208301527f217de27fab2ff3ec64dcfd3982cf92139e3f49879c57f1f1997f65218f64072c60403393a3005b608460405162461bcd60e51b815260206004820152602a60248201527f53657373696f6e4b65794d616e616765723a205370656e64696e67206c696d6960448201527f74206578636565646564000000000000000000000000000000000000000000006064820152fd5b3461019957604036600319011261019957610b34611432565b602435906001600160a01b0380911660005260046020526040600020805483101561019957602092610b659161148f565b9190546040519260031b1c168152f35b346101995760c036600319011261019957610b8e611432565b610b96611448565b60843567ffffffffffffffff811161019957610bb690369060040161145e565b60a43567ffffffffffffffff811161019957610bd690369060040161145e565b916001600160a01b03861615611302576001600160a01b038516156112985742604435111561122e57606435156111c457801561115a5782156110f0576001600160a01b038616600052600260205260406000206001600160a01b03861660005260205260ff6040600020541661108657604051938461014081011067ffffffffffffffff61014087011117610ff2576101408501604052600185526044356020860152606435604086015260006060860152600060808601526103e860a0860152610ca1826115bb565b91610caf6040519384611599565b8083526020830191368260051b8201116101995780925b8260051b82018410611066575050505060c0840152610ce4826115bb565b91610cf26040519384611599565b8083526020830191368260051b8201116101995780925b8260051b82018410611045575050505060e08201524261010082015260006101208201526001600160a01b038316600052600260205260406000206001600160a01b0383166000526020526040600020908051151560ff801984541691161782556020810151600183015560408101516002830155606081015160038301556080810151600483015560a0810151600583015560c081015180519067ffffffffffffffff8211610ff257680100000000000000008211610ff2576020906006850154836006870155808410611025575b500160068401600052602060002060005b838110611008575050505060e081015180519067ffffffffffffffff8211610ff257680100000000000000008211610ff2576020906007850154836007870155808410610f9f575b5001906007840160005260206000209060005b8160031c8110610f5357506007198116808203610efa575b50505050610120816101006009930151600885015501519101556001600160a01b0381166000526003602052610e978260406000206115ea565b6001600160a01b0382166000526004602052610eb78160406000206115ea565b7ff92750fcbac01e0415e86226b57a129b68a78a3be040da37c344b0098f7ec2ec60406001600160a01b03808251946044358652606435602087015216941692a3005b9260009360005b8184038110610f1e5750505060031c015561012060098680610e5d565b9091946020610f49600192885160e01c908560021b60031b9163ffffffff809116831b921b19161790565b9601929101610f01565b6000805b60088110610f6c575083820155600101610e45565b94906020610f96600192845160e01c908960021b60031b9163ffffffff809116831b921b19161790565b92019501610f57565b610fd2906007870160005283600020600780870160031c820192601c8860021b1680610fd8575b500160031c01906115d3565b87610e32565b60001990818601918254918a0360031b1c1690558c610fc6565b634e487b7160e01b600052604160045260246000fd5b60019060206001600160a01b038551169401938184015501610dea565b61103f9060068701600052848460002091820191016115d3565b87610dd9565b83356001600160e01b03198116810361019957815260209384019301610d09565b83356001600160a01b038116810361019957815260209384019301610cc6565b608460405162461bcd60e51b815260206004820152602d60248201527f53657373696f6e4b65794d616e616765723a2053657373696f6e206b6579206160448201527f6c726561647920657869737473000000000000000000000000000000000000006064820152fd5b608460405162461bcd60e51b815260206004820152602760248201527f53657373696f6e4b65794d616e616765723a204e6f20616c6c6f77656420667560448201527f6e6374696f6e73000000000000000000000000000000000000000000000000006064820152fd5b608460405162461bcd60e51b815260206004820152602560248201527f53657373696f6e4b65794d616e616765723a204e6f20616c6c6f77656420746160448201527f72676574730000000000000000000000000000000000000000000000000000006064820152fd5b608460405162461bcd60e51b815260206004820152602760248201527f53657373696f6e4b65794d616e616765723a20496e76616c6964206c696d697460448201527f20616d6f756e74000000000000000000000000000000000000000000000000006064820152fd5b608460405162461bcd60e51b815260206004820152602560248201527f53657373696f6e4b65794d616e616765723a20496e76616c696420657870697260448201527f6174696f6e0000000000000000000000000000000000000000000000000000006064820152fd5b608460405162461bcd60e51b815260206004820152602860248201527f53657373696f6e4b65794d616e616765723a20496e76616c696420736d61727460448201527f206163636f756e740000000000000000000000000000000000000000000000006064820152fd5b608460405162461bcd60e51b815260206004820152602660248201527f53657373696f6e4b65794d616e616765723a20496e76616c696420736573736960448201527f6f6e206b657900000000000000000000000000000000000000000000000000006064820152fd5b3461019957604036600319011261019957611385611432565b61138d611448565b9061140b6001600160a01b0392600484841693846000526113fc602091600283526040600020978516978860005283526113ce60ff60406000205416611528565b86600052600283526040600020886000528352604060002060ff198154169055600383526040600020611958565b84600052526040600020611958565b7f744157ccffbd293a2e8644928cd7d23d650f869b88f72d7bfea8041b76ca6bec600080a3005b600435906001600160a01b038216820361019957565b602435906001600160a01b038216820361019957565b9181601f840112156101995782359167ffffffffffffffff8311610199576020808501948460051b01011161019957565b80548210156114a75760005260206000200190600090565b634e487b7160e01b600052603260045260246000fd5b90815180825260208080930193019160005b8281106114dd575050505090565b83516001600160a01b0316855293810193928101926001016114cf565b9181601f840112156101995782359167ffffffffffffffff8311610199576020838186019501011161019957565b1561152f57565b608460405162461bcd60e51b815260206004820152602960248201527f53657373696f6e4b65794d616e616765723a2053657373696f6e206b6579206e60448201527f6f742061637469766500000000000000000000000000000000000000000000006064820152fd5b90601f8019910116810190811067ffffffffffffffff821117610ff257604052565b67ffffffffffffffff8111610ff25760051b60200190565b8181106115de575050565b600081556001016115d3565b9081549168010000000000000000831015610ff257826116129160016116319501815561148f565b9091906001600160a01b038084549260031b9316831b921b1916179055565b565b919082018092116108c257565b90604051918281549182825260209260208301916000526020600020936000905b8282106116775750505061163192500383611599565b85546001600160a01b031684526001958601958895509381019390910190611661565b9390949194604051937fae1eef8a0000000000000000000000000000000000000000000000000000000085526001600160a01b038096169687600487015286831660248701526020958681604481305afa908115611813576000916117d6575b50156117c957605461174191836040519485928a8401976bffffffffffffffffffffffff199060601b16885260348401378101466034820152036034810184520182611599565b5190207f19457468657265756d205369676e6564204d6573736167653a0a333200000000600052601c52603c60002067ffffffffffffffff8311610ff25760405191611796601f8501601f1916860184611599565b83835236848201116101995784846117bb956000936117c49887013784010152611a4c565b90929192611a88565b161490565b5050505050505050600090565b8781813d831161180c575b6117eb8183611599565b8101031261180857519081151582036118055750386116fa565b80fd5b5080fd5b503d6117e1565b6040513d6000823e3d90fd5b90916000923384526020916002602052604085206001600160a01b0380951690818752602052604086209460ff865416158015611937575b61192e5786918791600688018054935b8481106118fb575b5050505050156118f457600481106118f4576004116118f0576001600160e01b031980913516918460078195018054955b8681106118b2575b5050505050505090565b81835285858585208360031c015460e090818560051b161c901b16146118da576001016118a0565b50505050505050506001388080808080806118a8565b8380fd5b5050505090565b8383611907838561148f565b90549060031b1c161461191c57600101611867565b5050505050506001388080808061186f565b50505050505090565b5060018601544211611857565b80518210156114a75760209160051b010190565b6000915b81549283811015611a0257611971818461148f565b946001600160a01b039154958260039781871692891b1c161461199a575050600101925061195c565b909250600019918282019182116108c257611612846119bc6119ca948861148f565b905490891b1c16918661148f565b825480156119ec5701926119de848461148f565b81939154921b1b1916905555565b634e487b7160e01b600052603160045260246000fd5b50505050565b6001600160a01b03600054163303611a1c57565b60246040517f118cdaa7000000000000000000000000000000000000000000000000000000008152336004820152fd5b8151919060418303611a7d57611a7692506020820151906060604084015193015160001a90611b56565b9192909190565b505060009160029190565b6004811015611b405780611a9a575050565b60018103611acc5760046040517ff645eedf000000000000000000000000000000000000000000000000000000008152fd5b60028103611b0557602482604051907ffce698f70000000000000000000000000000000000000000000000000000000082526004820152fd5b600314611b0f5750565b602490604051907fd78bce0c0000000000000000000000000000000000000000000000000000000082526004820152fd5b634e487b7160e01b600052602160045260246000fd5b91907f7fffffffffffffffffffffffffffffff5d576e7357a4501ddfe92f46681b20a08411611bda57926020929160ff608095604051948552168484015260408301526060820152600092839182805260015afa15611bce5780516001600160a01b03811615611bc557918190565b50809160019190565b604051903d90823e3d90fd5b5050506000916003919056fea26469706673582212209b93e6c29d0445418c02f77d70bd247856ab0766378a861a964157ce8d0ecefd64736f6c63430008170033a26469706673582212200154a0f1b61a1a2fa38ecc38741b4c6bb05b4ab85018e2cbcfb12f09cc845dc664736f6c63430008170033",
  "devdoc": {
    "details": "Factory contract for creating Smart Accounts using CREATE2",
    "errors": {
      "OwnableInvalidOwner(address)": [
        {
          "details": "The owner is not a valid owner account. (eg. `address(0)`)"
        }
      ],
      "OwnableUnauthorizedAccount(address)": [
        {
          "details": "The caller account is not authorized to perform an operation."
        }
      ],
      "ReentrancyGuardReentrantCall()": [
        {
          "details": "Unauthorized reentrant call."
        }
      ]
    },
    "kind": "dev",
    "methods": {
      "batchCreateAccounts(address[],bytes32[])": {
        "details": "Batch create accounts for multiple owners",
        "params": {
          "owners": "Array of owner addresses",
          "salts": "Array of salts corresponding to each owner"
        },
        "returns": {
          "accountAddresses": "Array of created account addresses"
        }
      },
      "constructor": {
        "details": "Constructor",
        "params": {
          "_entryPoint": "Address of the ERC-4337 Entry Point contract"
        }
      },
      "createAccount(address,bytes32)": {
        "details": "Creates a new Smart Account for the given owner",
        "params": {
          "owner": "The owner of the new Smart Account",
          "salt": "Unique salt for CREATE2 deployment"
        },
        "returns": {
          "account": "Address of the created Smart Account"
        }
      },
      "getAccount(address)": {
        "details": "Gets the Smart Account address for a given owner",
        "params": {
          "owner": "The owner address"
        },
        "returns": {
          "account": "The Smart Account address (zero if not created)"
        }
      },
      "getAddress(address,bytes32)": {
        "details": "Computes the address of a Smart Account before deployment",
        "params": {
          "owner": "The owner of the Smart Account",
          "salt": "Unique salt for CREATE2 deployment"
        },
        "returns": {
          "account": "Computed address of the Smart Account"
        }
      },
      "isAccount(address)": {
        "details": "Checks if an address is a Smart Account created by this factory",
        "params": {
          "account": "The address to check"
        },
        "returns": {
          "_0": "True if the address is a Smart Account"
        }
      },
      "owner()": {
        "details": "Returns the address of the current owner."
      },
      "renounceOwnership()": {
        "details": "Leaves the contract without owner. It will not be possible to call `onlyOwner` functions. Can only be called by the current owner. NOTE: Renouncing ownership will leave the contract without an owner, thereby disabling any functionality that is only available to the owner."
      },
      "transferOwnership(address)": {
        "details": "Transfers ownership of the contract to a new account (`newOwner`). Can only be called by the current owner."
      },
      "updateImplementation(address)": {
        "details": "Emergency function to upgrade implementation (for security fixes only)",
        "params": {
          "newImplementation": "New implementation address"
        }
      }
    },
    "title": "AccountFactory",
    "version": 1
  },
  "userdoc": {
    "kind": "user",
    "methods": {},
    "notice": "This factory creates deterministic Smart Account addresses for users",
    "version": 1
  },
  "storageLayout": {
    "storage": [
      {
        "astId": 1167,
        "contract": "contracts/AccountFactory.sol:AccountFactory",
        "label": "_owner",
        "offset": 0,
        "slot": "0",
        "type": "t_address"
      },
      {
        "astId": 3423,
        "contract": "contracts/AccountFactory.sol:AccountFactory",
        "label": "_status",
        "offset": 0,
        "slot": "1",
        "type": "t_uint256"
      },
      {
        "astId": 9008,
        "contract": "contracts/AccountFactory.sol:AccountFactory",
        "label": "accounts",
        "offset": 0,
        "slot": "2",
        "type": "t_mapping(t_address,t_address)"
      },
      {
        "astId": 9012,
        "contract": "contracts/AccountFactory.sol:AccountFactory",
        "label": "isSmartAccount",
        "offset": 0,
        "slot": "3",
        "type": "t_mapping(t_address,t_bool)"
      }
    ],
    "types": {
      "t_address": {
        "encoding": "inplace",
        "label": "address",
        "numberOfBytes": "20"
      },
      "t_bool": {
        "encoding": "inplace",
        "label": "bool",
        "numberOfBytes": "1"
      },
      "t_mapping(t_address,t_address)": {
        "encoding": "mapping",
        "key": "t_address",
        "label": "mapping(address => address)",
        "numberOfBytes": "32",
        "value": "t_address"
      },
      "t_mapping(t_address,t_bool)": {
        "encoding": "mapping",
        "key": "t_address",
        "label": "mapping(address => bool)",
        "numberOfBytes": "32",
        "value": "t_bool"
      },
      "t_uint256": {
        "encoding": "inplace",
        "label": "uint256",
        "numberOfBytes": "32"
      }
    }
  }
}